:100000000C945D000C947C000C947C000C947C009F
:100010000C947C000C94E7010C94A3020C947C00DB
:100020000C947C000C947C000C947C000C947C0060
:100030000C947C000C947C000C947C000C947C0050
:100040000C947C000C947C000C947C000C947C0040
:100050000C947C000C947C000C947C000C947C0030
:100060000C947C000C947C000C947C000C947C0020
:100070000C947C000C947C000C947C000C947C0010
:100080000C947C000C947C000C947C00084AD73BB8
:100090003BCE016E84BCBFFDC12F3D6C74319ABD57
:1000A00056833DDA3D00C77F11BED9E4BB4C3E917B
:1000B0006BAAAABE000000803F0011241FBECFEF34
:1000C000D0E1DEBFCDBF11E0A0E0B1E0E2E7F6E1B4
:1000D00000E00BBF02C007900D92A430B107D9F722
:1000E00011E0A4E0B1E001C01D92A032B107E1F738
:1000F0000E9443070C94AE070C9400006AE070E085
:100100000E94D30A80E090E005C025E32A95F1F72C
:100110000000019686179707C4F3089520E030E0A9
:1001200008C0E9EFF0E03197F1F700C000002F5F61
:100130003F4F28173907ACF308959B014FEF44BB9D
:10014000409164004F604093640064E070E00E945E
:10015000D30A48E050E002C0559547958A95E2F7EA
:10016000409365002430310581F1253031058CF450
:100170002130310521F12230310524F421153105DA
:10018000E1F02FC022303105E1F02330310549F58F
:100190001AC027303105F9F0283031053CF42530FC
:1001A0003105A9F026303105E1F413C028303105BE
:1001B000A1F029303105A9F412C08FE313C086E005
:1001C00011C08BE50FC08FE40DC086E60BC08DE635
:1001D00009C08DE707C087E205C08FE703C08FE63F
:1001E00001C080E885BB08958F929F92AF92BF9225
:1001F000CF92DF92EF92FF920F931F93CF93DF93F3
:10020000EC0180E090E020E034E244EF50E00E9416
:10021000B40A28E63DE14BE150E00E94E60A89017C
:10022000CE0168EE73E00E94D30A2AE030E0CB01F1
:10023000B9010E94D30A7C01CE0164E670E00E94FD
:10024000D30ACB01B9010E94D30AD82EC92ECE0100
:10025000B9010E94D30AE82F492FCB01B9010E94AE
:10026000D30A5C019E2E842EC5E0D0E02FC080E032
:1002700090E0B7010E949D0083EF91E00197F1F7B4
:1002800000C0000081E090E06D2D7C2D0E949D005B
:1002900083EF91E00197F1F700C0000082E090E069
:1002A000B5010E949D0083EF91E00197F1F700C036
:1002B000000083E090E0692D782D0E949D0083EF7F
:1002C00091E00197F1F700C000002196C017D10717
:1002D00070F2DF91CF911F910F91FF90EF90DF901F
:1002E000CF90BF90AF909F908F900895DF92EF9244
:1002F000FF920F931F93CF93DF939C01B90188273F
:1003000077FD8095982F0E9417099B01AC0160E052
:1003100070E08AEF93E40E947C08F62E172FE82EF7
:10032000092F0E94E408EB01BE01882777FD809524
:10033000982F0E9417099B01AC016F2D712F8E2DF4
:10034000902F0E94B10720E030E04AE754E40E9479
:10035000F7090E94E4087B0180E187BB81E182BF4D
:1003600004E610E080E1D82ED8BACE010E948E00BB
:10037000C7010E947E0018BACE010E948E00C701FC
:100380000E947E000150104079F7DF91CF911F91BC
:100390000F91FF90EF90DF9008958BE092E00E9424
:1003A00076018091040190910501019664E070E06E
:1003B0000E94D30A90930501809304016091040187
:1003C0007091050180E090E00E949D0008951F92C9
:1003D0000F920FB60F920BB60F9211242F933F93EB
:1003E0004F935F936F937F938F939F93AF93BF933D
:1003F000CF93DF93EF93FF93F8940E949E07EC0155
:10040000909311018093100188EC90E00E948E007F
:100410008091100190911101C817D907B1F4809112
:100420000C0190910D01009759F481E090E09093B8
:100430000D0180930C018FE08ABF0E94CD0105C0A1
:1004400010920D0110920C011ABE7894FF91EF9159
:10045000DF91CF91BF91AF919F918F917F916F91DC
:100460005F914F913F912F910F900BBE0F900FBE58
:100470000F901F90189583E992E00E947601809179
:1004800004019091050182309105C9F083309105F6
:10049000C1F18130910509F055C08091060190911C
:1004A0000701019662E070E00E94D30A9093070171
:1004B00080930601609106017091070111C080913F
:1004C000080190910901019663E070E00E94D30A4F
:1004D00090930901809308016091080170910901CE
:1004E00083E090E00E949D0088EC90E00E948E00E6
:1004F000609104017091050180E090E00E949D00F0
:10050000089580910A0190910B01019662E070E0DC
:100510000E94D30A90930B0180930A0160910A0113
:1005200070910B0183E090E00E949D0088EC90E0C8
:100530000E948E00609104017091050180E090E0BE
:100540000E949D0008951F920F920FB60F920BB656
:100550000F9211242F933F934F935F936F937F9349
:100560008F939F93AF93BF93CF93DF93EF93FF93BB
:10057000F8940E949E07EC0190931301809312015E
:1005800088EC90E00E948E008091120190911301FE
:10059000C817D907B1F480910E0190910F0100970F
:1005A00059F481E090E090930F0180930E018FE069
:1005B0008ABF0E943B0205C010920F0110920E01EB
:1005C0001ABE7894FF91EF91DF91CF91BF91AF91D7
:1005D0009F918F917F916F915F914F913F912F915B
:1005E0000F900BBE0F900FBE0F901F90189510929A
:1005F0006A008FE08ABF80E389BF789408951F93D3
:1006000094EA909374009091740097FFFCCF9091BE
:100610007100987F9830D9F790ED9093730094E82B
:10062000909374009091740097FFFCCF90917100AB
:10063000987F9831D9F78093730084E88093740091
:100640008091740087FFFCCF80917100887F883291
:10065000D9F784EA809374008091740087FFFCCFFF
:1006600080917100887F8031D9F781ED809373008C
:1006700084E8809374008091740087FFFCCF8091A0
:100680007100887F8034D9F784E88093740080916A
:10069000740087FFFCCF80917100887F8835D9F77F
:1006A0001091730084E98093740081E090E00E94CF
:1006B0008E00812F1F9108951F93DF93CF930F9288
:1006C000CDB7DEB7182F85E090E069830E948E00D9
:1006D00084EA8093740069818091740087FFFCCF65
:1006E00080917100887F8830D9F780ED8093730006
:1006F00084E8809374008091740087FFFCCF809120
:100700007100887F8831D9F71093730084E8809353
:1007100074008091740087FFFCCF80917100887F06
:100720008832D9F76093730084E8809374008091D5
:10073000740087FFFCCF80917100887F8832D9F7E1
:100740008091740084698093740085E090E00E9439
:100750008E000F90CF91DF911F9108951F938330EA
:10076000910599F18430910544F48130910581F02F
:100770008230910509F050C01AC08530910589F189
:100780008530910544F18630910509F045C02FC0B0
:100790008BE30E94FF02182F8CE30E94FF02312F8F
:1007A00020E090E0822B932B86509F4F2CC08DE34E
:1007B0000E94FF02182F8EE30E94FF02312F20E0DB
:1007C00090E0822B932B0A971EC08FE30E94FF02BA
:1007D000182F80E411C083E40E94FF02182F84E4E4
:1007E0000BC085E40E94FF02182F86E405C087E451
:1007F0000E94FF02182F88E40E94FF02312F20E0A0
:1008000090E0822B932B9C01B901882777FD80957E
:10081000982F0E94170904C060E070E080E090E02B
:100820001F91089584E0809374001092710082E11A
:10083000809370008BE660E00E945C038CE660E0D1
:100840000E945C030895EF92FF920F931F93CF9342
:10085000DF9320EF209361008230910511F1833006
:10086000910534F4009751F08130910539F417C0A7
:1008700083309105C1F084309105B9F01092620087
:10088000CB01BA0120E030E040E251E40E94F709D8
:10089000162F072FF82EE92EC0E0D0E014C080EA12
:1008A00005C080E503C080E601C080E98093620056
:1008B000E7CF8FEF91EEA4E081509040A040E1F7A8
:1008C00000C000002196BE01882777FD8095982FF3
:1008D0000E941709D801F7012B2F302F4F2F5E2DC3
:1008E0000E94780887FDE5CFDF91CF911F910F918E
:1008F000FF90EF9008951BB888E08AB986E0809356
:1009000095001092900087E689B908955D9BFECF0F
:100910008CB90895EF92FF920F931F93CF93DF93BB
:10092000EC0197FF05C0D095C195DF4F8DE201C066
:1009300080E20E948604CE0160E177E20E94D30A41
:100940007C01862F805D0E94860408EE13E0C701BB
:10095000B8010E94D30A862F805D0E948604CE01D2
:10096000B8010E94D30A04E610E0B8010E94D30A3D
:10097000862F805D0E948604CE01B8010E94D30AB2
:100980000AE010E0B8010E94D30A862F805D0E9421
:100990008604CE01B8010E94D30A805D0E948604BD
:1009A000DF91CF911F910F91FF90EF900895AF923B
:1009B000BF92CF92DF92EF92FF920F931F937B0132
:1009C0008C0159016A0180910601909107010097FD
:1009D00059F480E090E0DC0180931C0190931D01AC
:1009E000A0931E01B0931F01809106019091070111
:1009F00081309105C1F460911C0170911D018091BD
:100A00001E0190911F0126E636E646E65FE30E944E
:100A1000F7099B01AC0120931C0130931D01409309
:100A20001E0150931F0120911C0130911D01409126
:100A30001E0150911F01C801B7010E94B2079B011E
:100A4000AC0120931401309315014093160150938B
:100A50001701A0921801B0921901C0921A01D09208
:100A60001B011F910F91FF90EF90DF90CF90BF90EF
:100A7000AF9008952F923F924F925F926F927F9224
:100A80008F929F92AF92BF92CF92DF92EF92FF929E
:100A90000F931F93DF93CF93CDB7DEB728970FB691
:100AA000F894DEBF0FBECDBF80E193E00E947601D7
:100AB00081E08BBB80E090E040E050E0BA010E9412
:100AC000230480910A0190910B0181309105C9F7AF
:100AD000E2E0EBBB81E090E00E94AE0369837A83A1
:100AE0008B839C8382E090E00E94AE037B018C01AB
:100AF00083E090E00E94AE035B016C0184E090E033
:100B00000E94AE033B014C0185E090E00E94AE03E1
:100B10001B012C0186E090E00E94AE039B01AC011A
:100B2000F4E0FBBB69817A818B819C812D833E83BC
:100B30004F8358870E94E408DC01CB010E948A049D
:100B400089E00E948604C801B7010E94E408DC0124
:100B5000CB010E948A0489E00E948604C601B50187
:100B60000E94E408DC01CB010E948A0489E00E9413
:100B70008604C401B3010E94E408DC01CB010E9499
:100B80008A0489E00E948604C201B1010E94E4083F
:100B9000DC01CB010E948A0489E00E9486042D8139
:100BA0003E814F815885CA01B9010E94E408DC01E9
:100BB000CB010E948A048AE00E9486048DE00E9494
:100BC000860469817A818B819C81905820E030E095
:100BD00040E858E30E94F7095B016C01C801B701C6
:100BE00020E030E040E858E30E94F7099B01AC01A7
:100BF000C601B5010E94D7046091180170911901D6
:100C000080911A0190911B012091140130911501DE
:100C100040911601509117010E9425085B016C015B
:100C20002091140130911501409116015091170146
:100C3000CA01B9010E94F709962E872E782E692ED7
:100C4000209118013091190140911A0150911B0116
:100C5000CA01B9010E94F709B62FA72FF82FE92F73
:100C6000B401C301272F362F492F582FCA01B901CC
:100C70006B2E7A2E8F2E9E2E9301A4010E94B20716
:100C80000E945E0A3B014C0188E08BBBC401B301AA
:100C90002DEC3CEC4CE45DE30E94EC0918160CF0E2
:100CA00063C0C601B50120E030E0A9010E947808C8
:100CB00087FF15C0C601B50190582BED3FE049E410
:100CC00050E40E947C0820E030E040E950E40E94BB
:100CD000F709AB01BC0183E090E00E942304C60148
:100CE000B50120E030E0A9010E94EC091816A4F437
:100CF000C601B5012BED3FE049E450E40E947C08B9
:100D000020E030E040E950E40E94F709AB01BC016B
:100D100084E090E00E942304609108017091090131
:100D2000660F771F660F771F6E5F7F4F882777FDEF
:100D30008095982F0E941709A40193010E94F7093A
:100D400020E030E040E05FE30E94B207AB01BC016D
:100D500081E090E00E94230480E090E040E050E0D9
:100D6000BA010E94230408C083E992E00E94760140
:100D700088EE93E00E948E00E0E1EBBB69817A810E
:100D80008B819C8120E030E0A9010E94EC0987FD65
:100D900016C0C801B70120E030E0A9010E94EC09AB
:100DA00087FD5DC081E090E062E070E00E949D0000
:100DB00056C081E090E063E070E00E949D00698190
:100DC0007A818B819C8120E030E0A9010E94780823
:100DD00087FF16C0C801B70120E030E0A9010E94DA
:100DE000EC0987FD46C081E090E060E070E00E9481
:100DF0009D003FC081E090E061E070E00E949D00B6
:100E0000F0E2FBBB6091080170910901882777FD32
:100E10008095982F0E94170920E030E040E05FE3C2
:100E20000E94B20720E030E04AE754E40E94F7094C
:100E3000A40193010E94F7090E94E408DC01CB01A0
:100E40000E948A048AE00E9486048DE00E94860443
:100E500080E48BBB80E197E20E948E0029CEC8011E
:100E6000B70120E030E0A9010E94780887FFA7CFF2
:100E7000A0CFC801B70120E030E0A9010E947808A6
:100E800087FFBECFB7CF8FEF8ABB0E94F7020E94C9
:100E90007B040E9412040E943A0580E090E00895CD
:100EA000AF92BF92CF92DF92EF92FF920F931F9378
:100EB000CF93DF93EC01688179818A819B816115F1
:100EC00071058105910521F464E279ED8BE597E0E8
:100ED0002DE133EF41E050E00E94080B79018A01D7
:100EE00027EA31E440E050E00E94B40A5B016C0163
:100EF000C801B7012CEE34EF4FEF5FEF0E94B40A48
:100F00006A0D7B1D8C1D9D1D97FF04C061507040B4
:100F100080409048688379838A839B837F77CB0165
:100F2000DF91CF911F910F91FF90EF90DF90CF90C5
:100F3000BF90AF9008950E945007089580E091E01F
:100F40000E9450070895A0E0B0E0809300019093C4
:100F50000101A0930201B09303010895F8940C9449
:100F6000370B5058BB27AA270ED0FCC1EDD130F06B
:100F7000F2D120F031F49F3F11F41EF4BDC10EF404
:100F8000E095E7FBB3C1E92FFED180F3BA17620702
:100F900073078407950718F071F49EF516C20EF4D6
:100FA000E0950B2EBA2FA02D0B01B90190010C0179
:100FB000CA01A0011124FF27591B99F0593F50F491
:100FC000503E68F11A16F040A22F232F342F4427E9
:100FD000585FF3CF469537952795A795F0405395E1
:100FE000C9F77EF41F16BA0B620B730B840BBAF0B1
:100FF0009150A1F0FF0FBB1F661F771F881FC2F71C
:101000000EC0BA0F621F731F841F48F4879577952F
:101010006795B795F7959E3F08F0B3CF9395880FE6
:1010200008F09927EE0F9795879508958DD158F080
:1010300080E891E009F49EEF8ED128F040E851E07D
:1010400059F45EEF09C058C1C0C1E92FE0789BD1C7
:1010500068F3092E052AC1F32617370748075907F1
:1010600038F00E2E07F8E02569F0E025E0640AC0AC
:10107000EF6307F8009407FADB01B9019D01DC0179
:10108000CA01AD01EF9347D06DD10AD05F915523CE
:1010900031F02BED3FE049E450FD49EC63CF08957A
:1010A000DF93DD27B92FBF7740E85FE316161706F9
:1010B00048075B0710F4D92F93D19F938F937F93A9
:1010C0006F933AD2ECE8F0E01AD14CD12F913F91D6
:1010D0004F915F9198D1DD2349F09058A2EA2AED13
:1010E0003FE049EC5FE3D0785D274DDFDF913AC107
:1010F000D9D008F481E008950CD034C12CD140F04F
:1011000023D130F021F45F3F19F0F0C051115EC1DE
:10111000F3C039D198F39923C9F35523B1F3951B43
:10112000550BBB27AA2762177307840738F09F5F08
:101130005F4F220F331F441FAA1FA9F333D00E2E77
:101140003AF0E0E830D091505040E695001CCAF7E4
:1011500029D0FE2F27D0660F771F881FBB1F2617A9
:1011600037074807AB07B0E809F0BB0B802DBF017C
:10117000FF2793585F4F2AF09E3F510568F0B6C095
:1011800025C15F3FECF3983EDCF386957795679534
:10119000B795F7959F5FC9F7880F911D969587952D
:1011A00097F90895E1E0660F771F881FBB1F62174C
:1011B00073078407BA0720F0621B730B840BBA0B0A
:1011C000EE1F88F7E095089504D06894B111FEC031
:1011D0000895E1D088F09F5790F0B92F9927B75123
:1011E000A0F0D1F0660F771F881F991F1AF0BA95EB
:1011F000C9F712C0B13081F0E8D0B1E00895E5C080
:10120000672F782F8827B85F39F0B93FCCF38695E0
:1012100077956795B395D9F73EF49095809570953D
:1012200061957F4F8F4F9F4F0895E89409C097FBBA
:101230003EF490958095709561957F4F8F4F9F4FAD
:101240009923A9F0F92F96E9BB279395F6958795F1
:1012500077956795B795F111F8CFFAF4BB0F11F4B4
:1012600060FF1BC06F5F7F4F8F4F9F4F16C088235B
:1012700011F096E911C0772321F09EE8872F762F91
:1012800005C0662371F096E8862F70E060E02AF0D2
:101290009A95660F771F881FDAF7880F96958795BE
:1012A00097F90895990F0008550FAA0BE0E8FEEF93
:1012B00016161706E807F907C0F012161306E4071A
:1012C000F50798F0621B730B840B950B39F40A2613
:1012D00061F0232B242B252B21F408950A2609F4F1
:1012E000A140A6958FEF811D811D089597F99F67F5
:1012F00080E870E060E008959FEF80EC0895DF9350
:10130000CF931F930F93FF92EF92DF927B018C019B
:10131000689405C0DA2EEF0176D0FE01E894A5911D
:101320002591359145915591AEF3EF012CDEFE01EB
:101330009701A801DA9479F7DF90EF90FF900F9171
:101340001F91CF91DF91089500240A941616170675
:1013500018060906089500240A94121613061406A6
:1013600005060895092E0394000C11F4882352F009
:10137000BB0F40F4BF2B11F460FF04C06F5F7F4FC1
:101380008F4F9F4F089557FD9058440F551F59F0A8
:101390005F3F71F04795880F97FB991F61F09F3F62
:1013A00079F087950895121613061406551FF2CF8B
:1013B0004695F1DF08C0161617061806991FF1CFDB
:1013C00086957105610508940895E894BB27662702
:1013D0007727CB0197F9089565DF08F48FEF08951B
:1013E0009B01AC0160E070E080E89FE385CE0BD00C
:1013F000B9CFAADF28F0AFDF18F0952309F076CF38
:101400007BCF1124E3CFBFDFA0F3959FD1F3950FDE
:1014100050E0551F629FF001729FBB27F00DB11D78
:10142000639FAA27F00DB11DAA1F649F6627B00D08
:10143000A11D661F829F2227B00DA11D621F739FF1
:10144000B00DA11D621F839FA00D611D221F749FFF
:101450003327A00D611D231F849F600D211D822F46
:10146000762F6A2F11249F5750408AF0E1F088238D
:101470004AF0EE0FFF1FBB1F661F771F881F91509A
:101480005040A9F79E3F510570F030CF9FCF5F3F8E
:10149000ECF3983EDCF3869577956795B795F795CD
:1014A000E7959F5FC1F7FE2B880F911D9695879555
:1014B00097F9089511F40EF41FCF41C06CDFD0F3FB
:1014C0009923D9F3CEF39F57550B87FF46D00024BD
:1014D000A0E640EA900180585695979528F4805CE4
:1014E000660F771F881F20F026173707480730F44C
:1014F000621B730B840B202931294A2BA695179464
:101500000794202531254A2758F7660F771F881F33
:1015100020F026173707480730F4620B730B840B53
:10152000200D311D411DA09581F7B901842F9158DF
:10153000880F9695879508959B01AC0158CF9F3FE2
:1015400031F0915020F4879577956795B795880F7E
:10155000911D9695879597F9089591505040660F83
:10156000771F881FD2F70895629FD001739FF00103
:10157000829FE00DF11D649FE00DF11D929FF00D23
:10158000839FF00D749FF00D659FF00D9927729F5A
:10159000B00DE11DF91F639FB00DE11DF91FBD01E5
:1015A000CF011124089597FB092E07260AD077FD55
:1015B00004D049D006D000201AF4709561957F4F71
:1015C0000895F6F7909581959F4F0895A1E21A2E00
:1015D000AA1BBB1BFD010DC0AA1FBB1FEE1FFF1FD7
:1015E000A217B307E407F50720F0A21BB30BE40B27
:1015F000F50B661F771F881F991F1A9469F760956E
:101600007095809590959B01AC01BD01CF01089527
:1016100097FB092E05260ED057FD04D0D7DF0AD040
:10162000001C38F450954095309521953F4F4F4F11
:101630005F4F0895F6F790958095709561957F4F6F
:101640008F4F9F4F0895AA1BBB1B51E107C0AA1FD4
:10165000BB1FA617B70710F0A61BB70B881F991F53
:101660005A95A9F780959095BC01CD010895F894FD
:02167000FFCFAA
:041672000100000073
:00000001FF
